S01700004763634170706C69636174696F6E352E7372656357
S11300000C942A000C943F000C943F000C943F0085
S11300100C943F000C943F000C943F000C943F0060
S11300200C943F000C943F000C943F000C943F0050
S11300300C943F000C943F000C943F000C943F0040
S11300400C943F000C943F000C943F000C943F0030
S11300500C943F0011241FBECFE5D4E0DEBFCDBF1A
S113006010E0A0E6B0E0E8E9FCE002C005900D92E3
S1130070AA37B107D9F70E9429010C944A060C94B7
S1130080000081B38FEF81BB92B382BB94B384BB76
S113009095B385BB97B387BB98B388BB1ABA1BBA11
S11300A0089585BB82B38F7B82BB82B38F7D82BB75
S11300B082B3806882BB82E08A95F1F700C082B384
S11300C08F7782BB8FE697E10197F1F700C00000BC
S11300D0089585BB82B3806482BB82B38F7D82BB6B
S11300E082B3806882BB82E08A95F1F700C082B354
S11300F08F7782BB8FEC97E00197F1F700C0000087
S113010008958FEF81BB84BB8FE39CE90197F1F7DE
S113011000C0000088E30E9451008CE00E9451005E
S113012086E00E94510081E00E94510080E80E9414
S1130130510008950F931F93CF93DF938C01C0E078
S1130140D0E003C00E9469002196F801EC0FFD1F66
S113015080818111F7CFDF91CF911F910F91089585
S11301601ABA87E886B980EC87B9089597B18F7079
S1130170982B97B986B1806486B9349BFECF8FECF7
S113018097E00197F1F700C0000024B185B190E039
S1130190982F8827820F911D0895CF93DF93EA014A
S11301A0811108C0603130F4862F8F7080680E94FE
S11301B0510009C0813039F4603128F4862F8F70E2
S11301C0806C0E945100CE010E949A00DF91CF9171
S11301D00895CF93DF93C42FD52F20E030E048EC6F
S11301E052E40E94BC020E94F801CB0164E670E074
S11301F00E9429038B309105ACF09F938F937F93DA
S11302006F9380E690E09F938F93DF93CF930E9448
S113021060038DB79EB708960FB6F8949EBF0FBEC5
S11302208DBF14C09F938F937F936F9386E690E066
S11302309F938F93DF93CF930E9460038DB79EB7F4
S113024008960FB6F8949EBF0FBE8DBFDF91CF9175
S11302500895CF93DF93CDB7DEB72A970FB6F894FE
S1130260DEBF0FBECDBF0E9441000E9481000E94EC
S1130270B0004DE650E060E080E00E94CD0000E078
S113028010E0E12CF12C07C081E00E94B600E80EDA
S1130290F91E0F5F1F4F04361105B4F3970136950D
S11302A0279536952795ABE7B4E10E943D039695D3
S11302B08795BC0180E090E00E942E0220E030E0AF
S11302C040E255E40E94BC0220E030EC4FE754E4E5
S11302D00E94860120E030E040E251E40E94860161
S11302E0AE014F5F5F4F0E94E900AE014F5F5F4F69
S11302F06CE080E00E94CD002FEF81E19AE721506D
S113030080409040E1F700C00000B9CF0E949A01FC
S11303100C9482020E947B0258F00E94740240F006
S113032029F45F3F29F00C946B0251110C94B6022E
S11303300C9471020E94930268F39923B1F355233C
S113034091F3951B550BBB27AA27621773078407E4
S113035038F09F5F5F4F220F331F441FAA1FA9F37A
S113036035D00E2E3AF0E0E832D091505040E69568
S1130370001CCAF72BD0FE2F29D0660F771F881FC9
S1130380BB1F261737074807AB07B0E809F0BB0BBC
S1130390802DBF01FF2793585F4F3AF09E3F5105D0
S11303A078F00C946B020C94B6025F3FE4F3983E31
S11303B0D4F3869577956795B795F7959F5FC9F7B9
S11303C0880F911D9695879597F90895E1E0660F3A
S11303D0771F881FBB1F621773078407BA0720F0B3
S11303E0621B730B840BBA0BEE1F88F7E09508951C
S11303F00E94FF016894B1110C94B60208950E9402
S11304009B0288F09F5798F0B92F9927B751B0F005
S1130410E1F0660F771F881F991F1AF0BA95C9F784
S113042014C0B13091F00E94B502B1E008950C946B
S1130430B502672F782F8827B85F39F0B93FCCF31E
S1130440869577956795B395D9F73EF49095809501
S1130450709561957F4F8F4F9F4F0895E89409C021
S113046097FB3EF490958095709561957F4F8F4FE3
S11304709F4F9923A9F0F92F96E9BB279395F695F9
S1130480879577956795B795F111F8CFFAF4BB0F77
S113049011F460FF1BC06F5F7F4F8F4F9F4F16C0DB
S11304A0882311F096E911C0772321F09EE8872F65
S11304B0762F05C0662371F096E8862F70E060E021
S11304C02AF09A95660F771F881FDAF7880F96959A
S11304D0879597F9089597F99F6780E870E060E041
S11304E008959FEF80EC089500240A9416161706C9
S11304F018060906089500240A9412161306140611
S113050005060895092E0394000C11F4882352F073
S1130510BB0F40F4BF2B11F460FF04C06F5F7F4F2B
S11305208F4F9F4F089557FD9058440F551F59F012
S11305305F3F71F04795880F97FB991F61F09F3FCC
S113054079F087950895121613061406551FF2CFF5
S11305504695F1DF08C0161617061806991FF1CF45
S113056086957105610508940895E894BB2766276C
S11305707727CB0197F908950E94CF020C94820249
S11305800E94740238F00E947B0220F0952311F03F
S11305900C946B020C94710211240C94B6020E9408
S11305A0930270F3959FC1F3950F50E0551F629F1E
S11305B0F001729FBB27F00DB11D639FAA27F00DB8
S11305C0B11DAA1F649F6627B00DA11D661F829FDF
S11305D02227B00DA11D621F739FB00DA11D621FC4
S11305E0839FA00D611D221F749F3327A00D611DE1
S11305F0231F849F600D211D822F762F6A2F1124C3
S11306009F5750409AF0F1F088234AF0EE0FFF1FF5
S1130610BB1F661F771F881F91505040A9F79E3F4C
S1130620510580F00C946B020C94B6025F3FE4F326
S1130630983ED4F3869577956795B795F795E795A2
S11306409F5FC1F7FE2B880F911D9695879597F9AB
S1130650089597FB072E16F4009407D077FD09D070
S11306600E944C0307FC05D03EF4909581959F4F62
S11306700895709561957F4F0895A29FB001B39F2F
S1130680C001A39F700D811D1124911DB29F700D97
S1130690811D1124911D0895AA1BBB1B51E107C0A4
S11306A0AA1FBB1FA617B70710F0A61BB70B881FFE
S11306B0991F5A95A9F780959095BC01CD0108958D
S11306C0AEE0B0E0E6E6F3E00C9421060D891E8965
S11306D086E08C831A8309838FEF9FE79E838D8343
S11306E0AE01475E5F4F6F89788DCE0101960E94FF
S11306F08203EF81F885E00FF11F10822E96E4E06B
S11307000C943D06ABE0B0E0E8E8F3E00C9413068B
S11307106C017B018A01FC0117821682838181FFAF
S1130720CCC1CE0101963C01F6019381F70193FD02
S1130730859193FF81917F01882309F4BAC18532A1
S113074039F493FD859193FF81917F01853229F4DA
S1130750B60190E00E947905E7CF912C212C312C31
S1130760FFE1F315D8F08B3279F038F4803279F068
S11307708332A1F4232D20611DC08D3261F08033BA
S113078069F4232D216016C0832D8260382EE32D59
S1130790E4603E2E2AC0F32DF8601DC037FC2DC046
S11307A020ED280F2A3040F08E32B9F436FC81C196
S11307B0232D2064322E19C036FE06C08AE0989E8E
S11307C0200D1124922E11C0EAE02E9E200D11243A
S11307D0222EF32DF0623F2E08C08C3621F4832D97
S11307E08068382E02C0883641F4F70193FD859164
S11307F093FF81917F018111B3CF982F9F7D9554F1
S1130800933028F40C5F1F4F9FE399830DC0833608
S113081031F0833771F0833509F059C021C0F801F4
S1130820808189830E5F1F4F88248394912C530108
S113083013C02801F2E04F0E511CF801A080B180D2
S113084036FE03C0692D70E002C06FEF7FEFC50173
S11308500E946E054C018201F32DFF773F2E16C0D6
S1130860280122E0420E511CF801A080B18036FE1E
S113087003C0692D70E002C06FEF7FEFC5010E94D5
S113088063054C01F32DF0683F2E820133FC1BC03D
S1130890822D90E088169906B0F4B60180E290E0CB
S11308A00E9479052A94F4CFF50137FC859137FE2F
S11308B081915F01B60190E00E94790521102A948C
S11308C021E0821A91088114910471F7E8C08436FA
S11308D011F0893641F5F80137FE07C06081718156
S11308E0828193810C5F1F4F08C060817181072E44
S11308F0000C880B990B0E5F1F4FF32DFF763F2ED4
S113090097FF09C090958095709561957F4F8F4FA3
S11309109F4FF0683F2E2AE030E0A3010E94B50506
S1130920882E861845C0853731F4232D2F7EB22EAC
S11309302AE030E025C0932D997FB92E8F36C1F07F
S113094018F4883579F0B5C0803719F0883721F06C
S1130950B0C0E92FE061BE2EB4FE0DC0FB2DF460E3
S1130960BF2E09C034FE0AC0292F2660B22E06C04D
S113097028E030E005C020E130E002C020E132E0B0
S1130980F801B7FE07C060817181828193810C5F99
S11309901F4F06C06081718180E090E00E5F1F4FA1
S11309A0A3010E94B505882E8618FB2DFF773F2EE4
S11309B036FE0DC0232D2E7FA22E891458F434FE4A
S11309C00BC032FC09C0832D8E7EA82E05C0B82C26
S11309D0A32C03C0B82C01C0B92CA4FE0FC0FE0187
S11309E0E80DF11D8081803321F49A2D997EA92E82
S11309F009C0A2FE06C0B394B39404C08A2D8678BD
S1130A0009F0B394A3FC11C0A0FE06C0B21488F48C
S1130A10280C922C9B180EC0B21460F4B60180E22C
S1130A2090E00E947905B394F7CFB21418F42B1810
S1130A3002C0982C212CA4FE10C0B60180E390E0E3
S1130A400E947905A2FE17C0A1FC03C088E790E0CC
S1130A5002C088E590E0B6010CC08A2D867859F072
S1130A60A1FE02C08BE201C080E2A7FC8DE2B601C8
S1130A7090E00E947905891438F4B60180E390E08F
S1130A800E9479059A94F7CF8A94F301E80DF11D39
S1130A908081B60190E00E9479058110F5CF222073
S1130AA009F442CEB60180E290E00E9479052A94CE
S1130AB0F6CFF6018681978102C08FEF9FEF2B96C8
S1130AC0E2E10C942F06FC01059061507040011086
S1130AD0D8F7809590958E0F9F1F0895FC01615063
S1130AE0704001900110D8F7809590958E0F9F1F4C
S1130AF008950F931F93CF93DF93FB01238121FD6F
S1130B0003C08FEF9FEF2CC022FF16C04681578190
S1130B10248135814217530744F4A081B1819D019A
S1130B202F5F3F4F318320838C93268137812F5F42
S1130B303F4F3783268314C08B01EC01FB010084F3
S1130B40F185E02D0995892BE1F6D80116968D9152
S1130B509C911797019617969C938E931697CE01A6
S1130B60DF91CF911F910F910895FA01AA272830A0
S1130B7051F1203181F1E8946F936E7F6E5F7F4F66
S1130B808F4F9F4FAF4FB1E03ED0B4E03CD0670FE2
S1130B90781F891F9A1FA11D680F791F8A1F911D35
S1130BA0A11D6A0F711D811D911DA11D20D009F485
S1130BB068943F912AE0269F11243019305D3193C7
S1130BC0DEF6CF010895462F4770405D4193B3E0B0
S1130BD00FD0C9F7F6CF462F4F70405D4A3318F057
S1130BE0495D31FD4052419302D0A9F7EACFB4E008
S1130BF0A6959795879577956795BA95C9F70097C0
S1130C006105710508959B01AC010A2E0694579560
S1130C10479537952795BA95C9F7620F731F841FB7
S1130C20951FA01D08952F923F924F925F926F924D
S1130C307F928F929F92AF92BF92CF92DF92EF9268
S1130C40FF920F931F93CF93DF93CDB7DEB7CA1BE9
S1130C50DB0B0FB6F894DEBF0FBECDBF09942A8814
S1130C60398848885F846E847D848C849B84AA84BC
S1130C70B984C884DF80EE80FD800C811B81AA8149
S1130C80B981CE0FD11D0FB6F894DEBF0FBECDBF14
S10B0C90ED010895F894FFCF73
S1130C9825642E25640025642E3025640054656D72
S10D0CA870657261747572653A009C
S9030000FC
